:100000000C94EC000C9409010C9409010C94090166
:100010000C9409010C9409010C9409010C94090138
:100020000C9409010C9409010C9409010C94090128
:100030000C9483010C9409010C9409010C9409019E
:100040000C9409010C9409010C9409010C94AE0163
:100050000C9409010C9409010C9409010C940901F8
:100060000C9409010C9409016E616E00696E6600C2
:1000700000407A10F35A00A0724E18090010A5D45F
:10008000E80000E87648170000E40B54020000CABC
:100090009A3B000000E1F505000080969800000002
:1000A00040420F000000A086010000001027000061
:1000B0000000E803000000006400000000000A00E7
:1000C000000000000100000000002C76D888DC67EA
:1000D0004F0823DFC1DFAE59E1B1B796E5E3E45342
:1000E000C63AE651997696E8E6C28426EB898C9B5F
:1000F00062ED407C6FFCEFBC9C9F40F2BAA56FA5FF
:10010000F490055A2AF75C936B6CF9676DC11BFC80
:10011000E0E40D47FEF520E6B500D0ED902E03009B
:10012000943577050080841E080000204E0A0000E8
:1001300000C80C333333330F986E12831141EF8DA7
:100140002114893BE65516CFFEE6DB18D1844B38E7
:100150001BF77C1D901DA4BBE424203284725E2218
:100160008100C9F124ECA1E53D276364696E6F70DD
:10017000737578585B65666745464700616E006E2B
:1001800066696E69747900CDCCCC3D0AD7233C17E3
:10019000B7D13877CC2B329595E6241FB14F0A00A2
:1001A0000020410000C84200401C4620BCBE4CCA92
:1001B0001B0E5AAEC59D74696E63720A00666C614F
:1001C00073680A0054494D4552315F434F4D5042C8
:1001D0005F766563740A000011241FBECFEFD4E080
:1001E000DEBFCDBF11E0A0E0B1E0E0E3F0E202C08D
:1001F00005900D92AA30B107D9F721E0AAE0B1E04D
:1002000001C01D92A732B207E1F70E94060C0C94C0
:1002100016100C9400008FEF87B918B810927A006E
:10022000219813B808951092C5008FE58093C400FB
:10023000E1ECF0E08081886080830895E9E6F0E0F9
:10024000808183608083E1E8F0E080818560808345
:1002500080818860808383E090E19093890080931F
:100260008800EFE6F0E080818460808383E08CBBCF
:1002700008950E940B010E9413010E941E0110921A
:100280000A017894089583B7817F83BF83B7816023
:1002900083BF83B7816083BF889583B78E7F83BF19
:1002A00083B78E7F83BF0895809169000895409140
:1002B000690020910B0130910C01220F331F306E29
:1002C00081E090E0442311F080E090E0282B392B6E
:1002D00030930C0120930B0181E02115304F09F080
:1002E00080E008958091C00085FFFCCF8091C6001A
:1002F000089590930E0180930D01E1ECF0E0808170
:100300008062808308951F920F920FB60F9211247E
:100310002F933F934F935F936F937F938F939F930D
:10032000AF93BF93EF93FF9384EC91E00E94790128
:1003300080910A01846080930A01FF91EF91BF913F
:10034000AF919F918F917F916F915F914F913F916D
:100350002F910F900FBE0F901F9018951F920F9224
:100360000FB60F9211248F93EF93FF9381E6809342
:10037000C600E1ECF0E080818F7D8083FF91EF91FA
:100380008F910F900FBE0F901F901895CF93C82F8D
:100390008DEB91E00E94790118B88C2F2C2F30E062
:1003A0002C5F3F4F61E070E0482F50E02417350785
:1003B0005CF098B1AB01082E01C0440F0A94EAF733
:1003C000492B48B98E5FF0CFCF91089587EB91E02C
:1003D0000E94790188B1882319F088B1803210F029
:1003E00081E002C088B1880F88B9089520E030E02C
:1003F0002817390761F0000000000000000000002D
:1004000000000000000000002F5F3F4FF1CF089573
:100410000F931F93CF93DF938C01C0E0D0E0C01700
:10042000D10731F088EE93E00E94F6012196F7CFD4
:10043000DF91CF911F910F9108955F9A08955F9872
:1004400008959BB1937C9BB92BB18F7034E0839F4F
:10045000C0011124822B8BB95E9A81E090E00E944A
:10046000F6015E9881E090E00C94F601CF93C82FDE
:1004700082958F700E9421028C2F8F700E94210222
:1004800080E590E0CF910C94F6010E941F0281E07C
:100490000E94360282E390E00E94080282E00E94FD
:1004A000360282E390E00C9408020E941F0282E070
:1004B0000E94360282E390E00C940802CF93DF930F
:1004C0001F92CDB7DEB789830E941D0289810F90EC
:1004D000DF91CF910C943602CF92DF92EF92FF9290
:1004E0000F931F93CF93DF93EC0197FF06C08DE22C
:1004F0000E945E02D195C195D10985E0E82EF12CCC
:1005000000E117E220E09AE0C92ED12CCE01B8011B
:100510000E944B0C6115710529F4211103C00130B3
:10052000110551F480E3860F0E945E02CE01B801EE
:100530000E944B0CEC0121E0C801B6010E944B0C5B
:100540008B0181E0E81AF10809F7DF91CF911F9143
:100550000F91FF90EF90DF90CF900895CF92DF92B0
:10056000EF92FF920F931F93CF93DF938C0197FF2E
:1005700006C08DE20E945E0211950195110985E089
:10058000E82EF12CC0E1D7E220E09AE0C92ED12C70
:10059000C801BE010E944B0C6115710529F421119F
:1005A00003C0C130D10569F480E3860F0E945E026A
:1005B000C801BE010E944B0C8C01C436D10551F418
:1005C00006C0C436D10539F480E30E945E028EE293
:1005D0000E945E0221E0CE01B6010E944B0CEB01AD
:1005E00081E0E81AF108A1F6DF91CF911F910F91F8
:1005F000FF90EF90DF90CF900895CF93DF93EC01C1
:10060000CE01FE012491222331F02196FC01849138
:100610000E945E02F5CFDF91CF910895CF93DF93D3
:10062000C82FD62F0E941F02EFEFEC0FE33028F403
:10063000F0E0EA5FFE4F808101C080E08D0F8068AE
:10064000DF91CF910C94360260E080E00C940E03B1
:1006500060E081E00C940E0360E082E00C940E03F5
:1006600060E083E00C940E038AB18C6F8AB984E653
:1006700090E00E9408020E941F0283E00E94210273
:1006800086E090E00E94080283E00E9421028AEF47
:1006900090E00E94F60183E00E9421028AEF90E040
:1006A0000E94F60182E00E94210288E20E94360246
:1006B0008CE00E94360281E00E94360285E090E0E4
:1006C0000E9408028CE00E94360286E00E943602F8
:1006D00084E10E9436020C9445020E945E0280E092
:1006E00090E008951092C50087E08093C40088E1EF
:1006F0008093C10086E08093C2006AE973E08AE8D3
:1007000093E00C94A00D9091C00095FFFCCF8093D6
:10071000C60008950E94830380E090E008958091D0
:10072000C000807808958091C00087FFFCCF809141
:10073000C60008950E949303082E000C990B08959B
:10074000A1E1B0E0E6EAF3E00C945F0C7C013B0130
:100750006A01FC0117821682838181FF37C39E01E3
:100760002F5F3F4F4901F7019381F30193FD85917D
:1007700093FF81913F01882309F424C3853239F422
:1007800093FD859193FF81913F01853239F4B70143
:1007900090E00E94280E56016501E5CF10E0312C53
:1007A00020E02032A0F48B3269F030F4803259F02E
:1007B000833269F420612CC08D3239F0803339F4F2
:1007C000216026C02260246023C0286021C027FD4C
:1007D00027C030ED380F3A3078F426FF06C0FAE033
:1007E0001F9F300D1124132F13C08AE0389E300D47
:1007F0001124332E20620CC08E3221F426FDE2C279
:10080000206406C08C3611F4206802C0883641F49A
:10081000F30193FD859193FF81913F018111C1CF38
:100820009BEB980F933018F42061805E06C09BE923
:10083000980F933008F066C12F7E26FF16E02F73C5
:10084000522E853619F42064522E08C0863621F4C3
:10085000922F9068592E02C01111115057FE07C0F7
:100860001C3350F422242394210E27E00BC01830AF
:1008700038F027E017E005C027E09CE3292E02C0EE
:10088000212F212C5601E4E0AE0EB11CF60160814F
:10089000718182819381022DA4010E94960C6C01CA
:1008A00029812C8720FF02C023FF06C051FC06C00F
:1008B00052FE06C000E205C00DE203C00BE201C01B
:1008C00000E08C858C7019F001115DC29EC257FE4C
:1008D00010C02C0C2C8524FF04C08A81813309F4BC
:1008E0002A94121474F538E0321578F588E0282E31
:1008F0002CC056FC2AC0812F90E08C159D059CF0E1
:100900008CEFC8168FEFD80674F0952D9068592E8D
:100910000AC0E2E0F0E0EC0FFD1FE10FF11D808165
:10092000803319F411501111F4CF57FE0EC0222458
:100930002394210E812F90E0C816D9062CF41C199F
:1009400004C02224239401C010E057FE06C01C14EA
:100950001D0434F4C601019605C085E090E002C094
:1009600081E090E001110196112331F0212F30E058
:100970002F5F3F4F820F931F232D30E08217930785
:1009800014F4381A01C0312C852D897049F43320B4
:1009900039F0B70180E290E00E94280E3A94F7CF38
:1009A000002329F0B701802F90E00E94280E53FC0D
:1009B00009C0332039F0B70180E390E00E94280E8F
:1009C0003A94F7CF57FE4DC02601D7FE02C0412C06
:1009D000512CC6010196841995099401280F391FDD
:1009E0003E872D87960122193109388B2F87012FD9
:1009F00010E01195019511093FEF4316530629F4B4
:100A0000B7018EE290E00E94280EC414D5044CF089
:100A10002F8538892415350524F4ED85FE858081E0
:100A200001C080E3F1E04F1A51082D853E852F5F0C
:100A30003F4F3E872D87401651062CF0B70190E0BE
:100A40000E94280ED9CFC414D50441F49A8196335C
:100A500020F4953319F43C8534FF81E3B70190E02D
:100A60004EC08A81813319F02C852F7E2C87B701E7
:100A700090E00E94280E111105C054FC18C085E6B4
:100A800090E017C0B7018EE290E00E94280E1E5F32
:100A900082E001E0080FF401E80FF11D8081B70149
:100AA00090E00E94280E802F0113F3CFE6CF85E45B
:100AB00090E0B7010E94280ED7FC06C0C114D104F3
:100AC00041F43C8534FF05C0D194C194D1088DE236
:100AD00001C08BE2B70190E00E94280E80E3EAE0BB
:100AE000CE16D1042CF08F5F9AE0C91AD108F7CF47
:100AF000B70190E00E94280EB701C601C0960E947F
:100B0000280E56C1833631F0833779F0833509F0EA
:100B100058C021C05601F2E0AF0EB11CF601808131
:100B2000898301E010E0640114C05601F2E0AF0EC9
:100B3000B11CF601C080D18026FF03C0612F70E098
:100B400002C06FEF7FEFC601298B0E94950D8C01CB
:100B500029892F7715C05601F2E0AF0EB11CF601BE
:100B6000C080D18026FF03C0612F70E002C06FEF0C
:100B70007FEFC601298B0E948A0D8C01298920688C
:100B8000522E23FD1AC0832D90E008171907A8F4F0
:100B9000B70180E290E00E94280E3A94F4CFF6016B
:100BA00057FC859157FE81916F01B70190E00E943B
:100BB000280E31103A94015011090115110579F7E9
:100BC000F7C0843611F0893659F5560127FF09C060
:100BD000F4E0AF0EB11CF6016081718182819381D6
:100BE0000AC0F2E0AF0EB11CF60160817181072EE0
:100BF000000C880B990B2F76522E97FF09C0909509
:100C00008095709561957F4F8F4F9F4F2068522E32
:100C10002AE030E0A4010E94710EC82EC8183FC01F
:100C2000022F853721F40F7E2AE030E01DC0097FB6
:100C30008F3691F018F4883559F0C4C0803719F018
:100C4000883711F0BFC0006104FF09C0046007C00D
:100C500024FF08C0066006C028E030E005C020E19F
:100C600030E002C020E132E0560107FF09C0F4E0A5
:100C7000AF0EB11CF601608171818281938108C041
:100C8000F2E0AF0EB11CF6016081718180E090E06E
:100C9000A4010E94710EC82EC8180F77502E56FE60
:100CA0000BC0052D0E7FC11650F454FE0AC052FC35
:100CB00008C0052D0E7E05C0DC2C052D03C0DC2CE4
:100CC00001C0D12E04FF0DC0FE01EC0DF11D80818D
:100CD000803311F4097E09C002FF06C0D394D39477
:100CE00004C0802F867809F0D39403FD11C000FF63
:100CF00006C0D31488F43C0C132D1D190EC0D31458
:100D000060F4B70180E290E00E94280ED394F7CF00
:100D1000D31418F43D1802C01C2D312C04FF10C050
:100D2000B70180E390E00E94280E02FF17C001FD8A
:100D300003C088E790E002C088E590E0B7010CC0EE
:100D4000802F867859F001FF02C08BE201C080E25B
:100D500007FD8DE2B70190E00E94280EC11638F41D
:100D6000B70180E390E00E94280E1150F7CFCA949B
:100D7000F401EC0DF11D8081B70190E00E94280E76
:100D8000C110F5CF15C0F4E0F31560F584E0381A12
:100D900053FE1FC0011127C03C8533FF2AC008E65F
:100DA00010E0852D8071582EF8018491811124C0A6
:100DB000332009F4F1CCB70180E290E00E94280EC4
:100DC0003A94F6CFF7018681978126C08FEF9FEF87
:100DD00023C0B70180E290E00E94280E3A943110BF
:100DE000F8CFD8CF312CB701802F90E00E94280E89
:100DF000D3CF0CE610E0D5CF51108052B70190E070
:100E00000E94280E0F5F1F4FCFCF23E0231510F451
:100E100083E0BDCF312CC0CF6196E2E10C947B0C16
:100E200020FD09C0FC0123FD05C022FF02C0738321
:100E3000628351834083089544FD17C046FD17C067
:100E4000AB01BC01DA01FB01AA0FBB1FEE1FFF1FA4
:100E50001094D1F74A0F5B1F6E1F7F1FCB01BA01A1
:100E6000660F771F881F991F09C033E001C034E067
:100E7000660F771F881F991F3150D1F7620F711DC0
:100E8000811D911D08950F931F93CF93DF938C01C4
:100E9000C8010E94EA0DEC0197FD08C00E946E0D8A
:100EA000892BB1F7B801CE010E94580ECE01DF9117
:100EB000CF911F910F910895A0E0B0E0E2E6F7E036
:100EC0000C94650C7C018B016A01D22F0E94EA0D03
:100ED0009C0133272B32310521F02D32310559F495
:100EE000D0680150110911F480E06BC0C7010E9465
:100EF000EA0D97FDF9CFCD2FCD7F2D2F207319F55A
:100F0000803309F5580181E0A81AB10809F445C0F9
:100F1000C7010E94EA0D97FD40C09C012F7D332739
:100F20002835310551F4C26402501109B1F1C701ED
:100F30000E94EA0D97FF07C030C0D6FF02C0C26012
:100F400001C0C2618501812C912C540120ED280F34
:100F5000283080F0C4FF04C0B7010E94580E1AC0A8
:100F60002A3040F0C6FFF8CF2F7D3FEE320F3630EB
:100F700098F727504C2FC501B4010E941C074B0164
:100F80005C01C2600150110959F0C7010E94EA0DCD
:100F900097FFDCCFC1FD04C0A7CF812C912C540159
:100FA000C7FF08C0B094A09490948094811C911CB9
:100FB000A11CB11C2C2FB501A401C6010E94100771
:100FC00081E0CDB7DEB7ECE00C94810CA0E2B0E09C
:100FD000ECEEF7E00C94610C5C014B017A018E01A0
:100FE0000F5F1F4F680180E2F80111928A95E9F7BF
:100FF000F501538040E050E0612C90E0712CA1E0BD
:10100000B0E0F90153FC859153FE81918F01482E88
:101010009F01811103C080E090E096C08E3519F4E5
:101020004115510551F1672D70E0641775073CF4C7
:101030008D3561F18D3219F4992311F103C0992393
:1010400009F46DC0842D869586958695F601E80F86
:10105000F11D842D87708D0102C0000F111F8A952C
:10106000E2F7C8019081892B8083641459F04614FB
:1010700010F44394E7CF4A94E5CF7724739403C0E8
:1010800091E001C090E04F5F5F4FBBCF992319F013
:101090008E8180628E83711003C07724739419C08F
:1010A000F6019E012F5D3F4F8081809581932E1721
:1010B0003F07D1F7F2CFE114F10431F0F70180835B
:1010C000B7016F5F7F4F7B0171E0871A9108712C28
:1010D000F9F0C5010E94EA0D97FD18C0FC01FF2739
:1010E00023E0F595E7952A95E1F7EC0DFD1D2081AC
:1010F00030E0AC014770552702C0359527954A95D9
:10110000E2F720FDD8CFB5010E94580E711083CFB1
:10111000E114F10411F0F7011082C80115C0682F25
:10112000669566956695F601E60FF11D682F677066
:101130008D0102C0000F111F6A95E2F7B80170819E
:10114000672B6083682E9FCFA096E0E10C947D0C06
:10115000A0E0B0E0EEEAF8E00C945F0C5C017B01EB
:101160001A010E94EA0DEC0199278B32910521F0BA
:101170008D9781F410E801C010E021E0E21AF10837
:1011800011F480E00BC1C5010E94EA0DEC0197FF4C
:1011900002C0F7CF10E0CE010E94770D893691058D
:1011A00031F08E369105A1F5CCE7D1E002C0CFE752
:1011B000D1E02196FE013197D490DD20D1F081E07D
:1011C000E81AF10891F0C5010E94EA0D4C0197FD63
:1011D0000CC00E94770D9927ED2DF0E08E179F0728
:1011E00041F3B501C4010E94580EC258D14049F6DE
:1011F00003C0CF57D14029F080E090E0A0E8BFE7DE
:1012000004C080E090E0A0ECBFE7BC01CD01B6C017
:10121000412C512C3201C12CD12C2C2F20532A309F
:1012200000F5012F0260812F887012FF06C0811126
:101230001EC02FEFC21AD20A1AC0882319F081E00B
:10124000C81AD10840E2C301B2010E941C072B0159
:101250003C01683979498949994148F0012F066074
:1012600006C02E3F89F413FD0FC0012F0860F1E086
:10127000EF1AF10841F0C5010E94EA0DEC01102FB0
:1012800097FFCBCF01C0102F11FF7BCFCE018F7DF9
:1012900099278534910509F041C0470121E0821A60
:1012A000910809F46ECFC5010E94EA0DEC0197FD8B
:1012B00068CF99278B32910519F08D9759F41061F9
:1012C000470182E0881A910809F45BCFC5010E94AA
:1012D000EA0DEC01CE01C0970A9708F052CF7401D5
:1012E000812C912CB401990C880B990B2C2F205335
:1012F00040E20E941C074B01E1E0EE1AF10839F0D0
:10130000C5010E94EA0DEC01C0970A9758F314FF3B
:1013100003C0919481949108C80CD91CEF2831F036
:10132000D7FD04C0B501CE010E94580EC301B20121
:101330000E940B0BD7FE06C0D194C194D108CBE913
:10134000D1E002C0C3EBD1E05E01F8E1AF1AB10811
:1013500030E2E32EF12CCE14DF0450F0FE01259193
:101360003591459154910E94480BCE18DF08F3CF78
:101370002497F694E794AC16BD0669F717FF05C0ED
:10138000DC01CB01B058BC01CD012114310429F09E
:10139000F101608371838283938381E0CDB7DEB7EF
:1013A000E2E10C947B0C4F925F927F928F929F921E
:1013B000AF92BF92CF92DF92EF92FF920F931F9363
:1013C000CF93DF935C01EB014A01FC011782168287
:1013D000712CF501D380FE01D3FC8591D3FE819160
:1013E000182FEF01882309F401C190E00E946E0DCF
:1013F000892B21F0C5010E944307EBCF153241F440
:10140000FE01D3FC1591D3FE1191EF01153281F449
:10141000C5010E94EA0D97FDE7C0412F50E09C01F5
:10142000332724173507A9F2B5010E94580EDEC0F4
:101430001A3239F4D3FC1591D3FE1191EF0101E07A
:1014400001C000E0E12CF12C20ED210F2A3078F4CE
:101450000260B70180E090E040E20E941C077B013F
:10146000FE01D3FC1591D3FE1191EF01EDCF01FFE9
:1014700004C0E114F10421F4B9C0EE24EA94FE2C76
:10148000183619F01C3651F010C0FE01D3FC15912E
:10149000D3FE1191EF01183641F408600460FE019B
:1014A000D3FC1591D3FE1191EF01112309F49EC0D5
:1014B000612F70E08AE691E00E947F0D892B09F48C
:1014C00095C000FD07C0F401C080D180C401029620
:1014D0004C0102C0C12CD12C1E3651F4F5014681BD
:1014E000578160E070E0202FC6010E94100771CF85
:1014F0001336B9F401FD03C0EE24E394F12CC501C9
:101500000E94EA0D97FD70C0C114D10429F0F601C4
:101510008083C60101966C0191E0E91AF10879F720
:101520005FC01B3559F49E01A601B701C5010E9499
:10153000E607EC01892B09F053C04DC0C5010E949C
:10154000430797FD51C01F36B9F138F4143691F1B5
:10155000193699F11835C1F52BC01337A9F018F4D5
:10156000103731F131C0153729F1183709F12CC086
:10157000C114D10429F0F6014082C60101966C0124
:1015800091E0E91AF10871F0C5010E94EA0D2C0101
:1015900097FD08C00E946E0D892B51F3B501C20161
:1015A0000E94580EC114D104D9F0F601108218C05F
:1015B000006403C0006201C00061202FA601B701D2
:1015C000C5010E945C0705C0A601B701C5010E94C4
:1015D000A808811105C0F5018381807329F406C034
:1015E00000FDF7CE7394F5CE772019F0872D90E0AB
:1015F00002C08FEF9FEFDF91CF911F910F91FF906E
:10160000EF90DF90CF90BF90AF909F908F907F90A2
:101610005F904F900895E89409C097FB3EF4909531
:101620008095709561957F4F8F4F9F4F9923A9F0BB
:10163000F92F96E9BB279395F6958795779567954A
:10164000B795F111F8CFFAF4BB0F11F460FF1BC08E
:101650006F5F7F4F8F4F9F4F16C0882311F096E921
:1016600011C0772321F09EE8872F762F05C06623CF
:1016700071F096E8862F70E060E02AF09A95660F88
:10168000771F881FDAF7880F9695879597F9089541
:101690000E945B0B0C94CC0B0E94BE0B38F00E9496
:1016A000C50B20F0952311F00C94B50B0C94BB0BDB
:1016B00011240C94000C0E94DD0B70F3959FC1F374
:1016C000950F50E0551F629FF001729FBB27F00DF0
:1016D000B11D639FAA27F00DB11DAA1F649F662745
:1016E000B00DA11D661F829F2227B00DA11D621F94
:1016F000739FB00DA11D621F839FA00D611D221F4E
:10170000749F3327A00D611D231F849F600D211D31
:10171000822F762F6A2F11249F5750409AF0F1F0B4
:1017200088234AF0EE0FFF1FBB1F661F771F881F1D
:1017300091505040A9F79E3F510580F00C94B50B95
:101740000C94000C5F3FE4F3983ED4F386957795B4
:101750006795B795F795E7959F5FC1F7FE2B880FC3
:10176000911D9695879597F9089597F99F6780E859
:1017700070E060E008959FEF80EC089500240A94E3
:101780001616170618060906089500240A9412165C
:101790001306140605060895092E0394000C11F48F
:1017A000882352F0BB0F40F4BF2B11F460FF04C03C
:1017B0006F5F7F4F8F4F9F4F089557FD9058440F95
:1017C000551F59F05F3F71F04795880F97FB991FA0
:1017D00061F09F3F79F0879508951216130614065D
:1017E000551FF2CF4695F1DF08C0161617061806EA
:1017F000991FF1CF86957105610508940895E894C5
:10180000BB2766277727CB0197F908950E943901F6
:10181000D12CD0E0C0E0CC24C39403E010E187E0F9
:10182000E82E80E2F82E80910A01199B0CC0C111AC
:101830002AC01092850010928400F0928900E092F4
:101840008800D8B020C0843029F00E9443010E9453
:101850004301E9CF80910A018B7F80930A01CC2359
:1018600079F08D2F0E94C601CA3011F0CF5F06C0FB
:101870001093890000938800D8B8C0E0DC25E7CF3A
:101880000E94E601E4CF843001F780910A018B7F4A
:1018900080930A01E6CFAA1BBB1B51E107C0AA1F18
:1018A000BB1FA617B70710F0A61BB70B881F991F01
:1018B0005A95A9F780959095BC01CD0108952F9276
:1018C0003F924F925F926F927F928F929F92AF92D0
:1018D000BF92CF92DF92EF92FF920F931F93CF931D
:1018E000DF93CDB7DEB7CA1BDB0B0FB6F894DEBFB4
:1018F0000FBECDBF09942A88398848885F846E84DA
:101900007D848C849B84AA84B984C884DF80EE8023
:10191000FD800C811B81AA81B981CE0FD11D0FB62C
:10192000F894DEBF0FBECDBFED010895283008F05A
:1019300027E03327DA01990F311D87FD916000966A
:101940006105710539F432602E5F3D9330E32A95CD
:10195000E1F708959F3F30F080387105610509F087
:101960003C5F3C5F3D93913008F08068911DDF93B0
:10197000CF931F930F93FF92EF92192F987F969515
:10198000E92F96959695E90FFF27E653FF4F992784
:101990003327EE24FF24A701E7010590089407945C
:1019A00028F4360FE71EF81E491F511D660F771FDA
:1019B000881F991F0694A1F70590079428F4E70E55
:1019C000F81E491F561FC11D770F881F991F661FDC
:1019D0000694A1F70590079428F4F80E491F561FA6
:1019E000C71FD11D880F991F661F771F0694A1F787
:1019F0000590079420F4490F561FC71FD81F990F51
:101A0000661F771F881F0694A9F784911095177099
:101A100041F0D695C79557954795F794E7941A9551
:101A2000C1F7E0E7F0E06894159015913591659164
:101A3000959105907FE27395E118F10A430B560BDF
:101A4000C90BD009C0F7E10CF11E431F561FC91F77
:101A5000D01D7EF4703311F48A95E6CFE8940150DE
:101A600030F0080F0AF40027021708F4202F2395FE
:101A7000022F7A3328F079E37D932A95E9F710C095
:101A80007D932A9589F606949795679537951795CE
:101A90001794E118F10A430B560BC90BD00998F0C3
:101AA00023957E9173957A3308F070E37C9320132D
:101AB000B8F77E9170617D9330F0839571E37D93EB
:101AC00070E32A95E1F71124EF90FF900F911F9199
:101AD000CF91DF91992787FD9095089591110C94EE
:101AE0000C10803219F089508550C8F70895911173
:101AF000089581548A5108F4805E855A0895FC0146
:101B00000590061621F00020D9F7C00108953197FD
:101B1000CF010895FC010590615070400110D8F785
:101B2000809590958E0F9F1F0895FC016150704025
:101B300001900110D8F7809590958E0F9F1F089502
:101B40000F931F93CF93DF93EC018B01892B29F423
:101B5000672B19F480E090E038C06EE070E081E01F
:101B600090E00E94CF0EFC01892BA1F380E88383D3
:101B70000115110571F01387028781E88383809135
:101B80001D0190911E01892B21F4F0931E01E09319
:101B90001D012097C9F0D187C0878381826083832C
:101BA00080911F0190912001892B71F4F093200105
:101BB000E0931F018091210190912201892B21F452
:101BC000F0932201E0932101CF01DF91CF911F918A
:101BD0000F910895CF93DF93EC012B8120FF33C049
:101BE00026FF0AC02F7B2B838E819F8101969F83C6
:101BF0008E838A8190E029C022FF0FC0E881F9819D
:101C00008081082E000C990B009719F420622B8319
:101C10001AC03196F983E8830EC0EA85FB850995E1
:101C200097FF09C02B81019611F080E201C080E18D
:101C3000822B8B8308C02E813F812F5F3F4F3F83D4
:101C40002E83992702C08FEF9FEFDF91CF910895E8
:101C50000F931F93CF93DF93182F092FEB018B81E5
:101C600081FD03C08FEF9FEF1EC082FF0FC02E814A
:101C70003F818C819D812817390774F4E881F981AF
:101C8000CF01019699838883108306C0E885F98582
:101C9000812F0995892B31F78E819F8101969F8332
:101CA0008E83812F902FDF91CF911F910F910895F7
:101CB000FB01238120FF12C026FD10C08F3F3FEFA4
:101CC000930761F082832F7D2064238326813781EF
:101CD0002150310937832683992708958FEF9FEF8D
:101CE0000895FA01AA27283051F1203181F1E894B2
:101CF0006F936E7F6E5F7F4F8F4F9F4FAF4FB1E0FF
:101D00003ED0B4E03CD0670F781F891F9A1FA11DF9
:101D1000680F791F8A1F911DA11D6A0F711D811DFA
:101D2000911DA11D20D009F468943F912AE0269FBF
:101D300011243019305D3193DEF6CF010895462F1E
:101D40004770405D4193B3E00FD0C9F7F6CF462FFF
:101D50004F70405D4A3318F0495D31FD4052419368
:101D600002D0A9F7EACFB4E0A69597958795779525
:101D70006795BA95C9F700976105710508959B01AC
:101D8000AC010A2E06945795479537952795BA9535
:101D9000C9F7620F731F841F951FA01D08950F932D
:101DA0001F93CF93DF93869F8001879F100D969F8F
:101DB000100D1124C8010E94EB0EEC01009729F0D0
:101DC000A80160E070E00E940F10CE01DF91CF917A
:101DD0001F910F9108950F931F93CF93DF9382303C
:101DE000910510F482E090E0E0912501F091260148
:101DF00020E030E0A0E0B0E0309719F1408151815F
:101E00000281138148175907C8F08417950769F4B0
:101E1000109731F012960C93129713961C9327C0CB
:101E2000009325011093260122C02115310519F0D8
:101E30004217530718F49A01BD01EF01DF01F801C1
:101E4000DBCF21153105F9F0281B390B2430310582
:101E500080F48A819B816115710521F0FB019383D8
:101E6000828304C09093260180932501FE0132965F
:101E700044C0FE01E20FF31F819391932250310978
:101E8000398328833AC02091230130912401232BE8
:101E900041F42091020130910301309324012093F9
:101EA000230120910001309101012115310541F4F8
:101EB0002DB73EB74091040150910501241B350B0D
:101EC000E0912301F0912401E217F307A0F42E1B07
:101ED0003F0B2817390778F0AC014E5F5F4F24178E
:101EE000350748F04E0F5F1F5093240140932301A4
:101EF0008193919302C0E0E0F0E0CF01DF91CF91B8
:101F00001F910F910895CF93DF93009709F481C03B
:101F1000FC01329713821282A0912501B091260113
:101F2000109781F420813181820F931F209123012A
:101F3000309124012817390751F5F0932401E093DB
:101F4000230167C0ED0120E030E0CE17DF0740F449
:101F50004A815B819E0141155105F1F0EA01F5CFFF
:101F6000D383C28340815181840F951FC817D9073D
:101F700059F488819981840F951F029691838083FB
:101F80008A819B81938382832115310529F4F09303
:101F90002601E09325013DC0E901FB83EA834991D5
:101FA0005991C40FD51FEC17FD0761F48081918111
:101FB000840F951F0296E90199838883828193811A
:101FC0009B838A83E0E0F0E012968D919C911397B9
:101FD000009719F0FD01DC01F7CF8D919C911197CD
:101FE0009D012E5F3F4F820F931F2091230130915F
:101FF00024012817390769F4309729F41092260133
:102000001092250102C013821282B0932401A09382
:102010002301DF91CF910895992788270895DC0146
:1020200001C06D9341505040E0F70895F894FFCF00
:0A20300000002701200040145400B6
:00000001FF
